{
  "_format": "hh-sol-artifact-1",
  "contractName": "VotingSystem",
  "sourceName": "contracts/VotingSystem.sol",
  "abi": [
    {
      "inputs": [],
      "stateMutability": "nonpayable",
      "type": "constructor"
    },
    {
      "anonymous": false,
      "inputs": [
        {
          "indexed": true,
          "internalType": "uint256",
          "name": "candidateId",
          "type": "uint256"
        },
        {
          "indexed": false,
          "internalType": "string",
          "name": "name",
          "type": "string"
        },
        {
          "indexed": false,
          "internalType": "string",
          "name": "party",
          "type": "string"
        }
      ],
      "name": "CandidateAdded",
      "type": "event"
    },
    {
      "anonymous": false,
      "inputs": [
        {
          "indexed": true,
          "internalType": "uint256",
          "name": "candidateId",
          "type": "uint256"
        },
        {
          "indexed": false,
          "internalType": "string",
          "name": "name",
          "type": "string"
        },
        {
          "indexed": false,
          "internalType": "string",
          "name": "party",
          "type": "string"
        }
      ],
      "name": "CandidateUpdated",
      "type": "event"
    },
    {
      "anonymous": false,
      "inputs": [
        {
          "indexed": true,
          "internalType": "uint256",
          "name": "electionId",
          "type": "uint256"
        },
        {
          "indexed": false,
          "internalType": "string",
          "name": "title",
          "type": "string"
        }
      ],
      "name": "ElectionCreated",
      "type": "event"
    },
    {
      "anonymous": false,
      "inputs": [
        {
          "indexed": true,
          "internalType": "uint256",
          "name": "electionId",
          "type": "uint256"
        }
      ],
      "name": "ElectionEnded",
      "type": "event"
    },
    {
      "anonymous": false,
      "inputs": [
        {
          "indexed": true,
          "internalType": "uint256",
          "name": "electionId",
          "type": "uint256"
        }
      ],
      "name": "ElectionStarted",
      "type": "event"
    },
    {
      "anonymous": false,
      "inputs": [
        {
          "indexed": true,
          "internalType": "address",
          "name": "oldEC",
          "type": "address"
        },
        {
          "indexed": true,
          "internalType": "address",
          "name": "newEC",
          "type": "address"
        }
      ],
      "name": "ElectoralCommissionUpdated",
      "type": "event"
    },
    {
      "anonymous": false,
      "inputs": [
        {
          "indexed": true,
          "internalType": "address",
          "name": "previousOwner",
          "type": "address"
        },
        {
          "indexed": true,
          "internalType": "address",
          "name": "newOwner",
          "type": "address"
        }
      ],
      "name": "OwnershipTransferred",
      "type": "event"
    },
    {
      "anonymous": false,
      "inputs": [
        {
          "indexed": false,
          "internalType": "address",
          "name": "account",
          "type": "address"
        }
      ],
      "name": "Paused",
      "type": "event"
    },
    {
      "anonymous": false,
      "inputs": [
        {
          "indexed": true,
          "internalType": "address",
          "name": "requester",
          "type": "address"
        },
        {
          "indexed": false,
          "internalType": "string",
          "name": "voterId",
          "type": "string"
        },
        {
          "indexed": false,
          "internalType": "string",
          "name": "name",
          "type": "string"
        }
      ],
      "name": "RegistrationRequested",
      "type": "event"
    },
    {
      "anonymous": false,
      "inputs": [
        {
          "indexed": false,
          "internalType": "address",
          "name": "account",
          "type": "address"
        }
      ],
      "name": "Unpaused",
      "type": "event"
    },
    {
      "anonymous": false,
      "inputs": [
        {
          "indexed": true,
          "internalType": "address",
          "name": "voter",
          "type": "address"
        },
        {
          "indexed": true,
          "internalType": "uint256",
          "name": "candidateId",
          "type": "uint256"
        },
        {
          "indexed": true,
          "internalType": "uint256",
          "name": "electionId",
          "type": "uint256"
        }
      ],
      "name": "VoteCast",
      "type": "event"
    },
    {
      "anonymous": false,
      "inputs": [
        {
          "indexed": true,
          "internalType": "address",
          "name": "voter",
          "type": "address"
        },
        {
          "indexed": false,
          "internalType": "string",
          "name": "voterId",
          "type": "string"
        },
        {
          "indexed": false,
          "internalType": "string",
          "name": "name",
          "type": "string"
        }
      ],
      "name": "VoterRegistered",
      "type": "event"
    },
    {
      "anonymous": false,
      "inputs": [
        {
          "indexed": true,
          "internalType": "address",
          "name": "voter",
          "type": "address"
        },
        {
          "indexed": false,
          "internalType": "string",
          "name": "voterId",
          "type": "string"
        }
      ],
      "name": "VoterVerified",
      "type": "event"
    },
    {
      "inputs": [
        {
          "internalType": "uint256",
          "name": "",
          "type": "uint256"
        }
      ],
      "name": "activeElectionIds",
      "outputs": [
        {
          "internalType": "uint256",
          "name": "",
          "type": "uint256"
        }
      ],
      "stateMutability": "view",
      "type": "function"
    },
    {
      "inputs": [
        {
          "internalType": "string",
          "name": "_name",
          "type": "string"
        },
        {
          "internalType": "string",
          "name": "_party",
          "type": "string"
        },
        {
          "internalType": "string",
          "name": "_imageUrl",
          "type": "string"
        }
      ],
      "name": "addCandidate",
      "outputs": [
        {
          "internalType": "uint256",
          "name": "",
          "type": "uint256"
        }
      ],
      "stateMutability": "nonpayable",
      "type": "function"
    },
    {
      "inputs": [
        {
          "internalType": "string",
          "name": "_voterId",
          "type": "string"
        }
      ],
      "name": "addValidVoterId",
      "outputs": [],
      "stateMutability": "nonpayable",
      "type": "function"
    },
    {
      "inputs": [],
      "name": "candidateCounter",
      "outputs": [
        {
          "internalType": "uint256",
          "name": "",
          "type": "uint256"
        }
      ],
      "stateMutability": "view",
      "type": "function"
    },
    {
      "inputs": [
        {
          "internalType": "uint256",
          "name": "",
          "type": "uint256"
        }
      ],
      "name": "candidates",
      "outputs": [
        {
          "internalType": "uint256",
          "name": "id",
          "type": "uint256"
        },
        {
          "internalType": "string",
          "name": "name",
          "type": "string"
        },
        {
          "internalType": "string",
          "name": "party",
          "type": "string"
        },
        {
          "internalType": "string",
          "name": "imageUrl",
          "type": "string"
        },
        {
          "internalType": "uint256",
          "name": "voteCount",
          "type": "uint256"
        },
        {
          "internalType": "bool",
          "name": "isActive",
          "type": "bool"
        }
      ],
      "stateMutability": "view",
      "type": "function"
    },
    {
      "inputs": [
        {
          "internalType": "string",
          "name": "_voterId",
          "type": "string"
        }
      ],
      "name": "checkVoterIdAvailability",
      "outputs": [
        {
          "internalType": "bool",
          "name": "isValid",
          "type": "bool"
        },
        {
          "internalType": "bool",
          "name": "isAvailable",
          "type": "bool"
        },
        {
          "internalType": "string",
          "name": "message",
          "type": "string"
        }
      ],
      "stateMutability": "view",
      "type": "function"
    },
    {
      "inputs": [
        {
          "internalType": "string",
          "name": "_title",
          "type": "string"
        },
        {
          "internalType": "string",
          "name": "_description",
          "type": "string"
        },
        {
          "internalType": "uint256[]",
          "name": "_candidateIds",
          "type": "uint256[]"
        }
      ],
      "name": "createElection",
      "outputs": [
        {
          "internalType": "uint256",
          "name": "",
          "type": "uint256"
        }
      ],
      "stateMutability": "nonpayable",
      "type": "function"
    },
    {
      "inputs": [],
      "name": "currentElectionId",
      "outputs": [
        {
          "internalType": "uint256",
          "name": "",
          "type": "uint256"
        }
      ],
      "stateMutability": "view",
      "type": "function"
    },
    {
      "inputs": [
        {
          "internalType": "uint256",
          "name": "_candidateId",
          "type": "uint256"
        }
      ],
      "name": "deactivateCandidate",
      "outputs": [],
      "stateMutability": "nonpayable",
      "type": "function"
    },
    {
      "inputs": [],
      "name": "electionCounter",
      "outputs": [
        {
          "internalType": "uint256",
          "name": "",
          "type": "uint256"
        }
      ],
      "stateMutability": "view",
      "type": "function"
    },
    {
      "inputs": [
        {
          "internalType": "uint256",
          "name": "",
          "type": "uint256"
        }
      ],
      "name": "elections",
      "outputs": [
        {
          "internalType": "uint256",
          "name": "id",
          "type": "uint256"
        },
        {
          "internalType": "string",
          "name": "title",
          "type": "string"
        },
        {
          "internalType": "string",
          "name": "description",
          "type": "string"
        },
        {
          "internalType": "uint256",
          "name": "startTime",
          "type": "uint256"
        },
        {
          "internalType": "uint256",
          "name": "endTime",
          "type": "uint256"
        },
        {
          "internalType": "bool",
          "name": "isActive",
          "type": "bool"
        },
        {
          "internalType": "uint256",
          "name": "totalVotes",
          "type": "uint256"
        }
      ],
      "stateMutability": "view",
      "type": "function"
    },
    {
      "inputs": [],
      "name": "electoralCommission",
      "outputs": [
        {
          "internalType": "address",
          "name": "",
          "type": "address"
        }
      ],
      "stateMutability": "view",
      "type": "function"
    },
    {
      "inputs": [
        {
          "internalType": "uint256",
          "name": "_electionId",
          "type": "uint256"
        }
      ],
      "name": "endElection",
      "outputs": [],
      "stateMutability": "nonpayable",
      "type": "function"
    },
    {
      "inputs": [],
      "name": "getAllVoters",
      "outputs": [
        {
          "internalType": "address[]",
          "name": "",
          "type": "address[]"
        }
      ],
      "stateMutability": "view",
      "type": "function"
    },
    {
      "inputs": [
        {
          "internalType": "uint256",
          "name": "_candidateId",
          "type": "uint256"
        }
      ],
      "name": "getCandidate",
      "outputs": [
        {
          "components": [
            {
              "internalType": "uint256",
              "name": "id",
              "type": "uint256"
            },
            {
              "internalType": "string",
              "name": "name",
              "type": "string"
            },
            {
              "internalType": "string",
              "name": "party",
              "type": "string"
            },
            {
              "internalType": "string",
              "name": "imageUrl",
              "type": "string"
            },
            {
              "internalType": "uint256",
              "name": "voteCount",
              "type": "uint256"
            },
            {
              "internalType": "bool",
              "name": "isActive",
              "type": "bool"
            }
          ],
          "internalType": "struct VotingSystem.Candidate",
          "name": "",
          "type": "tuple"
        }
      ],
      "stateMutability": "view",
      "type": "function"
    },
    {
      "inputs": [],
      "name": "getCurrentElection",
      "outputs": [
        {
          "components": [
            {
              "internalType": "uint256",
              "name": "id",
              "type": "uint256"
            },
            {
              "internalType": "string",
              "name": "title",
              "type": "string"
            },
            {
              "internalType": "string",
              "name": "description",
              "type": "string"
            },
            {
              "internalType": "uint256",
              "name": "startTime",
              "type": "uint256"
            },
            {
              "internalType": "uint256",
              "name": "endTime",
              "type": "uint256"
            },
            {
              "internalType": "bool",
              "name": "isActive",
              "type": "bool"
            },
            {
              "internalType": "uint256",
              "name": "totalVotes",
              "type": "uint256"
            },
            {
              "internalType": "uint256[]",
              "name": "candidateIds",
              "type": "uint256[]"
            }
          ],
          "internalType": "struct VotingSystem.Election",
          "name": "",
          "type": "tuple"
        }
      ],
      "stateMutability": "view",
      "type": "function"
    },
    {
      "inputs": [
        {
          "internalType": "uint256",
          "name": "_electionId",
          "type": "uint256"
        }
      ],
      "name": "getElection",
      "outputs": [
        {
          "components": [
            {
              "internalType": "uint256",
              "name": "id",
              "type": "uint256"
            },
            {
              "internalType": "string",
              "name": "title",
              "type": "string"
            },
            {
              "internalType": "string",
              "name": "description",
              "type": "string"
            },
            {
              "internalType": "uint256",
              "name": "startTime",
              "type": "uint256"
            },
            {
              "internalType": "uint256",
              "name": "endTime",
              "type": "uint256"
            },
            {
              "internalType": "bool",
              "name": "isActive",
              "type": "bool"
            },
            {
              "internalType": "uint256",
              "name": "totalVotes",
              "type": "uint256"
            },
            {
              "internalType": "uint256[]",
              "name": "candidateIds",
              "type": "uint256[]"
            }
          ],
          "internalType": "struct VotingSystem.Election",
          "name": "",
          "type": "tuple"
        }
      ],
      "stateMutability": "view",
      "type": "function"
    },
    {
      "inputs": [
        {
          "internalType": "uint256",
          "name": "_electionId",
          "type": "uint256"
        }
      ],
      "name": "getElectionResults",
      "outputs": [
        {
          "components": [
            {
              "internalType": "uint256",
              "name": "id",
              "type": "uint256"
            },
            {
              "internalType": "string",
              "name": "name",
              "type": "string"
            },
            {
              "internalType": "string",
              "name": "party",
              "type": "string"
            },
            {
              "internalType": "string",
              "name": "imageUrl",
              "type": "string"
            },
            {
              "internalType": "uint256",
              "name": "voteCount",
              "type": "uint256"
            },
            {
              "internalType": "bool",
              "name": "isActive",
              "type": "bool"
            }
          ],
          "internalType": "struct VotingSystem.Candidate[]",
          "name": "",
          "type": "tuple[]"
        }
      ],
      "stateMutability": "view",
      "type": "function"
    },
    {
      "inputs": [],
      "name": "getPendingRegistrations",
      "outputs": [
        {
          "components": [
            {
              "internalType": "address",
              "name": "walletAddress",
              "type": "address"
            },
            {
              "internalType": "string",
              "name": "voterId",
              "type": "string"
            },
            {
              "internalType": "string",
              "name": "name",
              "type": "string"
            },
            {
              "internalType": "string",
              "name": "nationalId",
              "type": "string"
            },
            {
              "internalType": "string",
              "name": "email",
              "type": "string"
            },
            {
              "internalType": "uint256",
              "name": "timestamp",
              "type": "uint256"
            },
            {
              "internalType": "bool",
              "name": "isPending",
              "type": "bool"
            }
          ],
          "internalType": "struct VotingSystem.VoterRegistrationRequest[]",
          "name": "",
          "type": "tuple[]"
        }
      ],
      "stateMutability": "view",
      "type": "function"
    },
    {
      "inputs": [
        {
          "internalType": "uint256",
          "name": "_requestId",
          "type": "uint256"
        }
      ],
      "name": "getRegistrationRequest",
      "outputs": [
        {
          "components": [
            {
              "internalType": "address",
              "name": "walletAddress",
              "type": "address"
            },
            {
              "internalType": "string",
              "name": "voterId",
              "type": "string"
            },
            {
              "internalType": "string",
              "name": "name",
              "type": "string"
            },
            {
              "internalType": "string",
              "name": "nationalId",
              "type": "string"
            },
            {
              "internalType": "string",
              "name": "email",
              "type": "string"
            },
            {
              "internalType": "uint256",
              "name": "timestamp",
              "type": "uint256"
            },
            {
              "internalType": "bool",
              "name": "isPending",
              "type": "bool"
            }
          ],
          "internalType": "struct VotingSystem.VoterRegistrationRequest",
          "name": "",
          "type": "tuple"
        }
      ],
      "stateMutability": "view",
      "type": "function"
    },
    {
      "inputs": [
        {
          "internalType": "address",
          "name": "_voterAddress",
          "type": "address"
        }
      ],
      "name": "getVoter",
      "outputs": [
        {
          "components": [
            {
              "internalType": "string",
              "name": "voterId",
              "type": "string"
            },
            {
              "internalType": "address",
              "name": "walletAddress",
              "type": "address"
            },
            {
              "internalType": "string",
              "name": "name",
              "type": "string"
            },
            {
              "internalType": "string",
              "name": "nationalId",
              "type": "string"
            },
            {
              "internalType": "string",
              "name": "email",
              "type": "string"
            },
            {
              "internalType": "bool",
              "name": "isVerified",
              "type": "bool"
            },
            {
              "internalType": "bool",
              "name": "hasVoted",
              "type": "bool"
            },
            {
              "internalType": "uint256",
              "name": "votedElectionId",
              "type": "uint256"
            },
            {
              "internalType": "uint256",
              "name": "registrationTimestamp",
              "type": "uint256"
            }
          ],
          "internalType": "struct VotingSystem.Voter",
          "name": "",
          "type": "tuple"
        }
      ],
      "stateMutability": "view",
      "type": "function"
    },
    {
      "inputs": [],
      "name": "getVoterStats",
      "outputs": [
        {
          "internalType": "uint256",
          "name": "totalVoters",
          "type": "uint256"
        },
        {
          "internalType": "uint256",
          "name": "verifiedVoters",
          "type": "uint256"
        },
        {
          "internalType": "uint256",
          "name": "votedCount",
          "type": "uint256"
        }
      ],
      "stateMutability": "view",
      "type": "function"
    },
    {
      "inputs": [
        {
          "internalType": "address",
          "name": "",
          "type": "address"
        }
      ],
      "name": "hasRegistrationRequest",
      "outputs": [
        {
          "internalType": "bool",
          "name": "",
          "type": "bool"
        }
      ],
      "stateMutability": "view",
      "type": "function"
    },
    {
      "inputs": [],
      "name": "owner",
      "outputs": [
        {
          "internalType": "address",
          "name": "",
          "type": "address"
        }
      ],
      "stateMutability": "view",
      "type": "function"
    },
    {
      "inputs": [],
      "name": "pause",
      "outputs": [],
      "stateMutability": "nonpayable",
      "type": "function"
    },
    {
      "inputs": [],
      "name": "paused",
      "outputs": [
        {
          "internalType": "bool",
          "name": "",
          "type": "bool"
        }
      ],
      "stateMutability": "view",
      "type": "function"
    },
    {
      "inputs": [],
      "name": "registrationRequestCounter",
      "outputs": [
        {
          "internalType": "uint256",
          "name": "",
          "type": "uint256"
        }
      ],
      "stateMutability": "view",
      "type": "function"
    },
    {
      "inputs": [
        {
          "internalType": "uint256",
          "name": "",
          "type": "uint256"
        }
      ],
      "name": "registrationRequests",
      "outputs": [
        {
          "internalType": "address",
          "name": "walletAddress",
          "type": "address"
        },
        {
          "internalType": "string",
          "name": "voterId",
          "type": "string"
        },
        {
          "internalType": "string",
          "name": "name",
          "type": "string"
        },
        {
          "internalType": "string",
          "name": "nationalId",
          "type": "string"
        },
        {
          "internalType": "string",
          "name": "email",
          "type": "string"
        },
        {
          "internalType": "uint256",
          "name": "timestamp",
          "type": "uint256"
        },
        {
          "internalType": "bool",
          "name": "isPending",
          "type": "bool"
        }
      ],
      "stateMutability": "view",
      "type": "function"
    },
    {
      "inputs": [
        {
          "internalType": "uint256",
          "name": "_requestId",
          "type": "uint256"
        }
      ],
      "name": "rejectRegistration",
      "outputs": [],
      "stateMutability": "nonpayable",
      "type": "function"
    },
    {
      "inputs": [],
      "name": "renounceOwnership",
      "outputs": [],
      "stateMutability": "nonpayable",
      "type": "function"
    },
    {
      "inputs": [
        {
          "internalType": "string",
          "name": "_voterId",
          "type": "string"
        },
        {
          "internalType": "string",
          "name": "_name",
          "type": "string"
        },
        {
          "internalType": "string",
          "name": "_nationalId",
          "type": "string"
        },
        {
          "internalType": "string",
          "name": "_email",
          "type": "string"
        }
      ],
      "name": "requestRegistration",
      "outputs": [],
      "stateMutability": "nonpayable",
      "type": "function"
    },
    {
      "inputs": [
        {
          "internalType": "uint256",
          "name": "_electionId",
          "type": "uint256"
        },
        {
          "internalType": "uint256",
          "name": "_duration",
          "type": "uint256"
        }
      ],
      "name": "startElection",
      "outputs": [],
      "stateMutability": "nonpayable",
      "type": "function"
    },
    {
      "inputs": [
        {
          "internalType": "address",
          "name": "newOwner",
          "type": "address"
        }
      ],
      "name": "transferOwnership",
      "outputs": [],
      "stateMutability": "nonpayable",
      "type": "function"
    },
    {
      "inputs": [],
      "name": "unpause",
      "outputs": [],
      "stateMutability": "nonpayable",
      "type": "function"
    },
    {
      "inputs": [
        {
          "internalType": "uint256",
          "name": "_candidateId",
          "type": "uint256"
        },
        {
          "internalType": "string",
          "name": "_name",
          "type": "string"
        },
        {
          "internalType": "string",
          "name": "_party",
          "type": "string"
        },
        {
          "internalType": "string",
          "name": "_imageUrl",
          "type": "string"
        }
      ],
      "name": "updateCandidate",
      "outputs": [],
      "stateMutability": "nonpayable",
      "type": "function"
    },
    {
      "inputs": [
        {
          "internalType": "address",
          "name": "_newEC",
          "type": "address"
        }
      ],
      "name": "updateElectoralCommission",
      "outputs": [],
      "stateMutability": "nonpayable",
      "type": "function"
    },
    {
      "inputs": [
        {
          "internalType": "string",
          "name": "",
          "type": "string"
        }
      ],
      "name": "usedVoterIds",
      "outputs": [
        {
          "internalType": "bool",
          "name": "",
          "type": "bool"
        }
      ],
      "stateMutability": "view",
      "type": "function"
    },
    {
      "inputs": [
        {
          "internalType": "string",
          "name": "",
          "type": "string"
        }
      ],
      "name": "validVoterIds",
      "outputs": [
        {
          "internalType": "bool",
          "name": "",
          "type": "bool"
        }
      ],
      "stateMutability": "view",
      "type": "function"
    },
    {
      "inputs": [
        {
          "internalType": "uint256",
          "name": "_requestId",
          "type": "uint256"
        }
      ],
      "name": "verifyVoter",
      "outputs": [],
      "stateMutability": "nonpayable",
      "type": "function"
    },
    {
      "inputs": [
        {
          "internalType": "uint256",
          "name": "_candidateId",
          "type": "uint256"
        }
      ],
      "name": "vote",
      "outputs": [],
      "stateMutability": "nonpayable",
      "type": "function"
    },
    {
      "inputs": [
        {
          "internalType": "uint256",
          "name": "",
          "type": "uint256"
        }
      ],
      "name": "voterAddresses",
      "outputs": [
        {
          "internalType": "address",
          "name": "",
          "type": "address"
        }
      ],
      "stateMutability": "view",
      "type": "function"
    },
    {
      "inputs": [
        {
          "internalType": "string",
          "name": "",
          "type": "string"
        }
      ],
      "name": "voterIdToAddress",
      "outputs": [
        {
          "internalType": "address",
          "name": "",
          "type": "address"
        }
      ],
      "stateMutability": "view",
      "type": "function"
    },
    {
      "inputs": [
        {
          "internalType": "address",
          "name": "",
          "type": "address"
        }
      ],
      "name": "voters",
      "outputs": [
        {
          "internalType": "string",
          "name": "voterId",
          "type": "string"
        },
        {
          "internalType": "address",
          "name": "walletAddress",
          "type": "address"
        },
        {
          "internalType": "string",
          "name": "name",
          "type": "string"
        },
        {
          "internalType": "string",
          "name": "nationalId",
          "type": "string"
        },
        {
          "internalType": "string",
          "name": "email",
          "type": "string"
        },
        {
          "internalType": "bool",
          "name": "isVerified",
          "type": "bool"
        },
        {
          "internalType": "bool",
          "name": "hasVoted",
          "type": "bool"
        },
        {
          "internalType": "uint256",
          "name": "votedElectionId",
          "type": "uint256"
        },
        {
          "internalType": "uint256",
          "name": "registrationTimestamp",
          "type": "uint256"
        }
      ],
      "stateMutability": "view",
      "type": "function"
    }
  ],
  "bytecode": "0x60806040523480156200001157600080fd5b506200001d3362000058565b60018055600280546001600160a81b0319166101003390810291909117909155620000489062000058565b62000052620000a8565b62000416565b600080546001600160a01b038381166001600160a01b0319831681178455604051919092169283917f8be0079c531659141344cd1fd0a4f28419497f9722a3daafe3b4186f6b6457e09190a35050565b604080516102c0810182526008610280820181815267564f54455230303160c01b6102a0840152825282518084018452818152672b27aa22a918181960c11b602082810191909152808401919091528351808501855282815267564f54455230303360c01b818301528385015283518085018552828152671593d511548c0c0d60c21b8183015260608401528351808501855282815267564f54455230303560c01b81830152608084015283518085018552828152672b27aa22a918181b60c11b8183015260a08401528351808501855282815267564f54455230303760c01b8183015260c084015283518085018552828152670ac9ea88aa46060760c31b8183015260e08401528351808501855282815267564f54455230303960c01b8183015261010084015283518085018552828152670564f5445523031360c41b818301526101208401528351808501855282815267564f54455230313160c01b8183015261014084015283518085018552828152672b27aa22a918189960c11b818301526101608401528351808501855282815267564f54455230313360c01b8183015261018084015283518085018552828152671593d511548c0c4d60c21b818301526101a08401528351808501855282815267564f54455230313560c01b818301526101c084015283518085018552828152672b27aa22a918189b60c11b818301526101e08401528351808501855282815267564f54455230313760c01b8183015261020084015283518085018552828152670ac9ea88aa46062760c31b818301526102208401528351808501855282815267564f54455230313960c01b818301526102408401528351808501909452908352670564f5445523032360c41b9083015261026081019190915260005b6014811015620003a3576001600d8383601481106200035a576200035a620003a7565b60200201516040516200036e9190620003bd565b908152604051908190036020019020805491151560ff19909216919091179055806200039a81620003ee565b91505062000337565b5050565b634e487b7160e01b600052603260045260246000fd5b6000825160005b81811015620003e05760208186018101518583015201620003c4565b506000920191825250919050565b6000600182016200040f57634e487b7160e01b600052601160045260246000fd5b5060010190565b61588180620004266000396000f3fe608060405234801561001057600080fd5b50600436106102695760003560e01c80638456cb5911610151578063a6ecbb17116100c3578063db6b47bd11610087578063db6b47bd146105ec578063dd0e237314610620578063e8ededa614610633578063e9b891a214610653578063f1d58b5e14610666578063f2fde38b1461068857600080fd5b8063a6ecbb171461057a578063ad71f8dc146105a8578063b0b0e68d146105bb578063cd935611146105c3578063d4f50f98146105cc57600080fd5b80639c2c33ba116101155780639c2c33ba146104e45780639c98bcbb146104f75780639d7107771461050a5780639dedeb821461052a578063a0bd43e51461053f578063a3ec138d1461055257600080fd5b80638456cb591461048c5780638da5cb5b1461049457806392d280ad146104a557806397341d59146104c857806398ecf2a0146104db57600080fd5b80633bc990db116101ea57806361e116af116101ae57806361e116af146103ff57806361e374171461042f5780636b3c6fd6146104385780636bb394c61461045e578063715018a614610471578063828e8ff51461047957600080fd5b80633bc990db1461038f5780633f4ba83a1461039857806357c29e05146103a05780635c975abb146103ce5780635e6fef01146103d957600080fd5b8063343299b011610231578063343299b0146103025780633477ee2e146103155780633585ddbb1461033a57806335b8e8201461035a57806335bbe70e1461037a57600080fd5b80630121b93f1461026e5780630452a8e0146102835780630c54b463146102bb57806329d5f560146102ce5780632c4d2711146102e1575b600080fd5b61028161027c366004614a7d565b61069b565b005b6102a6610291366004614a96565b600c6020526000908152604090205460ff1681565b60405190151581526020015b60405180910390f35b6102816102c9366004614ac6565b610a3f565b6102816102dc366004614a96565b610c6a565b6102f46102ef366004614b9f565b610d14565b6040519081526020016102b2565b610281610310366004614c8c565b61104e565b610328610323366004614a7d565b61116e565b6040516102b296959493929190614d19565b61034d610348366004614a7d565b61133f565b6040516102b29190614e0a565b61036d610368366004614a7d565b61160a565b6040516102b29190614e92565b610382611843565b6040516102b29190614ea5565b6102f460045481565b6102816118d5565b6102a66103ae366004614c8c565b8051602081830181018051600e8252928201919093012091525460ff1681565b60025460ff166102a6565b6103ec6103e7366004614a7d565b61190e565b6040516102b29796959493929190614ef2565b6002546104179061010090046001600160a01b031681565b6040516001600160a01b0390911681526020016102b2565b6102f460055481565b61044b610446366004614a7d565b611a60565b6040516102b29796959493929190614f44565b61028161046c366004614fbe565b611cc9565b6102816120a3565b6102f4610487366004614a7d565b6120b5565b6102816120d6565b6000546001600160a01b0316610417565b6104ad61210d565b604080519384526020840192909252908201526060016102b2565b6102816104d6366004614a7d565b612491565b6102f460035481565b6102816104f236600461506b565b612543565b610281610505366004614a7d565b6126f8565b61051d610518366004614a7d565b6128ca565b6040516102b291906150db565b610532612ab7565b6040516102b2919061517c565b61028161054d366004614a7d565b612e88565b610565610560366004614a96565b613534565b6040516102b2999897969594939291906151de565b6102a6610588366004614c8c565b8051602081830181018051600d8252928201919093012091525460ff1681565b6102f46105b6366004615267565b6137b0565b61051d61398b565b6102f460065481565b6105df6105da366004614a96565b613c28565b6040516102b291906152ef565b6104176105fa366004614c8c565b80516020818301810180516008825292820191909301209152546001600160a01b031681565b61041761062e366004614a7d565b613f40565b610646610641366004614a7d565b613f6a565b6040516102b291906153c7565b610281610661366004614a7d565b61447b565b610679610674366004614c8c565b614582565b6040516102b29392919061541c565b610281610696366004614a96565b6146f7565b3360009081526007602052604090206005015460ff166107175760405162461bcd60e51b815260206004820152602c60248201527f4f6e6c7920766572696669656420766f746572732063616e20706572666f726d60448201526b103a3434b99030b1ba34b7b760a11b60648201526084015b60405180910390fd5b61071f61476d565b6107276147c6565b60006003541161076e5760405162461bcd60e51b815260206004820152601260248201527127379030b1ba34bb329032b632b1ba34b7b760711b604482015260640161070e565b6003546000908152600a60205260409020600581015460ff166107cc5760405162461bcd60e51b8152602060048201526016602482015275456c656374696f6e206973206e6f742061637469766560501b604482015260640161070e565b806003015442101580156107e4575080600401544211155b6108305760405162461bcd60e51b815260206004820152601d60248201527f456c656374696f6e206e6f7420696e20766f74696e6720706572696f64000000604482015260640161070e565b3360009081526007602052604090206005810154610100900460ff16158061085e5750600354816006015414155b6108aa5760405162461bcd60e51b815260206004820152601e60248201527f416c726561647920766f74656420696e207468697320656c656374696f6e0000604482015260640161070e565b6000805b60078401548110156108fb57848460070182815481106108d0576108d0615448565b9060005260206000200154036108e957600191506108fb565b806108f381615474565b9150506108ae565b50806109535760405162461bcd60e51b815260206004820152602160248201527f43616e646964617465206e6f7420696e2063757272656e7420656c656374696f6044820152603760f91b606482015260840161070e565b60008481526009602052604090206005015460ff166109ae5760405162461bcd60e51b815260206004820152601760248201527643616e646964617465206973206e6f742061637469766560481b604482015260640161070e565b60058201805461ff001916610100179055600354600683015560008481526009602052604081206004018054916109e483615474565b90915550506006830180549060006109fb83615474565b9091555050600354604051859033907fb4cfecf70861b7b150d8337780d34fb4cbc2114b5fb1fe51a5c5fca1849f727490600090a4505050610a3c60018055565b50565b60025461010090046001600160a01b03163314610a6e5760405162461bcd60e51b815260040161070e9061548d565b816005548111158015610a8e57506000818152600a602052604090205415155b610aaa5760405162461bcd60e51b815260040161070e906154de565b6000838152600a60205260409020600581015460ff1615610b0d5760405162461bcd60e51b815260206004820152601a60248201527f456c656374696f6e20697320616c726561647920616374697665000000000000604482015260640161070e565b60008311610b5d5760405162461bcd60e51b815260206004820152601f60248201527f4475726174696f6e206d7573742062652067726561746572207468616e203000604482015260640161070e565b6003541580610b8157506003546000908152600a602052604090206005015460ff16155b610bd85760405162461bcd60e51b815260206004820152602260248201527f416e6f7468657220656c656374696f6e20697320616c72656164792061637469604482015261766560f01b606482015260840161070e565b4260038201819055610beb908490615515565b600482015560058101805460ff19166001908117909155600385905560108054918201815560009081527f1b6847dc741a1b0cd08d278845f9d819d87b734759afb55fe2de5cb82a9ae67290910185905560405185917f159eee87222a0489c529f2153c26ad65d718f2cc33ebaa8d399d1dd5b39facaa91a250505050565b610c7261480c565b6001600160a01b038116610cba5760405162461bcd60e51b815260206004820152600f60248201526e496e76616c6964206164647265737360881b604482015260640161070e565b600280546001600160a01b03838116610100818102610100600160a81b031985161790945560405193909204169182907f188e2c3e8892689537f688b4b2274f78fbc5c30c7dc8c26cd6558fb4ba648c9790600090a35050565b60025460009061010090046001600160a01b03163314610d465760405162461bcd60e51b815260040161070e9061548d565b6000845111610d975760405162461bcd60e51b815260206004820152601e60248201527f456c656374696f6e207469746c652063616e6e6f7420626520656d7074790000604482015260640161070e565b6000825111610de85760405162461bcd60e51b815260206004820152601f60248201527f4174206c65617374206f6e652063616e64696461746520726571756972656400604482015260640161070e565b60005b8251811015610f2157600454838281518110610e0957610e09615448565b602002602001015111158015610e4f575060096000848381518110610e3057610e30615448565b6020026020010151815260200190815260200160002060000154600014155b610e925760405162461bcd60e51b8152602060048201526014602482015273125b9d985b1a590818d85b991a59185d1948125160621b604482015260640161070e565b60096000848381518110610ea857610ea8615448565b60209081029190910181015182528101919091526040016000206005015460ff16610f0f5760405162461bcd60e51b815260206004820152601760248201527643616e646964617465206973206e6f742061637469766560481b604482015260640161070e565b80610f1981615474565b915050610deb565b5060058054906000610f3283615474565b9091555050604080516101008101825260055480825260208083018881528385018890526000606085018190526080850181905260a0850181905260c0850181905260e08501889052928352600a9091529290208151815591519091906001820190610f9e90826155b1565b5060408201516002820190610fb390826155b1565b50606082015160038201556080820151600482015560a082015160058201805460ff191691151591909117905560c0820151600682015560e0820151805161100591600784019160209091019061498e565b509050506005547f52be7c4e77b4de76b7607d621492061fe13b58597e72dfb5e51ab8f6187ed1418560405161103b9190615671565b60405180910390a2506005549392505050565b60025461010090046001600160a01b0316331461107d5760405162461bcd60e51b815260040161070e9061548d565b60008151116110c95760405162461bcd60e51b8152602060048201526018602482015277566f7465722049442063616e6e6f7420626520656d70747960401b604482015260640161070e565b600d816040516110d99190615684565b9081526040519081900360200190205460ff16156111395760405162461bcd60e51b815260206004820152601760248201527f566f74657220494420616c726561647920657869737473000000000000000000604482015260640161070e565b6001600d8260405161114b9190615684565b908152604051908190036020019020805491151560ff1990921691909117905550565b600960205260009081526040902080546001820180549192916111909061552e565b80601f01602080910402602001604051908101604052809291908181526020018280546111bc9061552e565b80156112095780601f106111de57610100808354040283529160200191611209565b820191906000526020600020905b8154815290600101906020018083116111ec57829003601f168201915b50505050509080600201805461121e9061552e565b80601f016020809104026020016040519081016040528092919081815260200182805461124a9061552e565b80156112975780601f1061126c57610100808354040283529160200191611297565b820191906000526020600020905b81548152906001019060200180831161127a57829003601f168201915b5050505050908060030180546112ac9061552e565b80601f01602080910402602001604051908101604052809291908181526020018280546112d89061552e565b80156113255780601f106112fa57610100808354040283529160200191611325565b820191906000526020600020905b81548152906001019060200180831161130857829003601f168201915b50505050600483015460059093015491929160ff16905086565b6113476149d9565b60025461010090046001600160a01b031633146113765760405162461bcd60e51b815260040161070e9061548d565b6000828152600b6020908152604091829020825160e0810190935280546001600160a01b0316835260018101805491928401916113b29061552e565b80601f01602080910402602001604051908101604052809291908181526020018280546113de9061552e565b801561142b5780601f106114005761010080835404028352916020019161142b565b820191906000526020600020905b81548152906001019060200180831161140e57829003601f168201915b505050505081526020016002820180546114449061552e565b80601f01602080910402602001604051908101604052809291908181526020018280546114709061552e565b80156114bd5780601f10611492576101008083540402835291602001916114bd565b820191906000526020600020905b8154815290600101906020018083116114a057829003601f168201915b505050505081526020016003820180546114d69061552e565b80601f01602080910402602001604051908101604052809291908181526020018280546115029061552e565b801561154f5780601f106115245761010080835404028352916020019161154f565b820191906000526020600020905b81548152906001019060200180831161153257829003601f168201915b505050505081526020016004820180546115689061552e565b80601f01602080910402602001604051908101604052809291908181526020018280546115949061552e565b80156115e15780601f106115b6576101008083540402835291602001916115e1565b820191906000526020600020905b8154815290600101906020018083116115c457829003601f168201915b50505091835250506005820154602082015260069091015460ff16151560409091015292915050565b6116456040518060c0016040528060008152602001606081526020016060815260200160608152602001600081526020016000151581525090565b600960008381526020019081526020016000206040518060c00160405290816000820154815260200160018201805461167d9061552e565b80601f01602080910402602001604051908101604052809291908181526020018280546116a99061552e565b80156116f65780601f106116cb576101008083540402835291602001916116f6565b820191906000526020600020905b8154815290600101906020018083116116d957829003601f168201915b5050505050815260200160028201805461170f9061552e565b80601f016020809104026020016040519081016040528092919081815260200182805461173b9061552e565b80156117885780601f1061175d57610100808354040283529160200191611788565b820191906000526020600020905b81548152906001019060200180831161176b57829003601f168201915b505050505081526020016003820180546117a19061552e565b80601f01602080910402602001604051908101604052809291908181526020018280546117cd9061552e565b801561181a5780601f106117ef5761010080835404028352916020019161181a565b820191906000526020600020905b8154815290600101906020018083116117fd57829003601f168201915b50505091835250506004820154602082015260059091015460ff16151560409091015292915050565b60025460609061010090046001600160a01b031633146118755760405162461bcd60e51b815260040161070e9061548d565b600f8054806020026020016040519081016040528092919081815260200182805480156118cb57602002820191906000526020600020905b81546001600160a01b031681526001909101906020018083116118ad575b5050505050905090565b60025461010090046001600160a01b031633146119045760405162461bcd60e51b815260040161070e9061548d565b61190c614866565b565b600a60205260009081526040902080546001820180549192916119309061552e565b80601f016020809104026020016040519081016040528092919081815260200182805461195c9061552e565b80156119a95780601f1061197e576101008083540402835291602001916119a9565b820191906000526020600020905b81548152906001019060200180831161198c57829003601f168201915b5050505050908060020180546119be9061552e565b80601f01602080910402602001604051908101604052809291908181526020018280546119ea9061552e565b8015611a375780601f10611a0c57610100808354040283529160200191611a37565b820191906000526020600020905b815481529060010190602001808311611a1a57829003601f168201915b5050506003840154600485015460058601546006909601549495919490935060ff909116915087565b600b60205260009081526040902080546001820180546001600160a01b039092169291611a8c9061552e565b80601f0160208091040260200160405190810160405280929190818152602001828054611ab89061552e565b8015611b055780601f10611ada57610100808354040283529160200191611b05565b820191906000526020600020905b815481529060010190602001808311611ae857829003601f168201915b505050505090806002018054611b1a9061552e565b80601f0160208091040260200160405190810160405280929190818152602001828054611b469061552e565b8015611b935780601f10611b6857610100808354040283529160200191611b93565b820191906000526020600020905b815481529060010190602001808311611b7657829003601f168201915b505050505090806003018054611ba89061552e565b80601f0160208091040260200160405190810160405280929190818152602001828054611bd49061552e565b8015611c215780601f10611bf657610100808354040283529160200191611c21565b820191906000526020600020905b815481529060010190602001808311611c0457829003601f168201915b505050505090806004018054611c369061552e565b80601f0160208091040260200160405190810160405280929190818152602001828054611c629061552e565b8015611caf5780601f10611c8457610100808354040283529160200191611caf565b820191906000526020600020905b815481529060010190602001808311611c9257829003601f168201915b50505050600583015460069093015491929160ff16905087565b336000908152600c602052604090205460ff1615611d355760405162461bcd60e51b815260206004820152602360248201527f526567697374726174696f6e207265717565737420616c72656164792065786960448201526273747360e81b606482015260840161070e565b6000845111611d815760405162461bcd60e51b8152602060048201526018602482015277566f7465722049442063616e6e6f7420626520656d70747960401b604482015260640161070e565b6000835111611dc95760405162461bcd60e51b81526020600482015260146024820152734e616d652063616e6e6f7420626520656d70747960601b604482015260640161070e565b600d84604051611dd99190615684565b9081526040519081900360200190205460ff16611e545760405162461bcd60e51b815260206004820152603360248201527f566f746572204944206e6f7420666f756e6420696e20456c6563746f72616c20604482015272436f6d6d697373696f6e20646174616261736560681b606482015260840161070e565b600e84604051611e649190615684565b9081526040519081900360200190205460ff1615611ec45760405162461bcd60e51b815260206004820152601b60248201527f566f74657220494420616c726561647920726567697374657265640000000000604482015260640161070e565b60006001600160a01b0316600885604051611edf9190615684565b908152604051908190036020019020546001600160a01b031614611f575760405162461bcd60e51b815260206004820152602960248201527f566f74657220494420616c7265616479206c696e6b656420746f20616e6f7468604482015268195c881dd85b1b195d60ba1b606482015260840161070e565b60068054906000611f6783615474565b90915550506040805160e081018252338152602080820187815282840187905260608301869052608083018590524260a0840152600160c084018190526006546000908152600b90935293909120825181546001600160a01b0319166001600160a01b0390911617815590519192909190820190611fe590826155b1565b5060408201516002820190611ffa90826155b1565b506060820151600382019061200f90826155b1565b506080820151600482019061202490826155b1565b5060a0820151600582015560c0909101516006909101805491151560ff19928316179055336000818152600c602052604090819020805490931660011790925590517fd9e24f257fb23ae62e392e378963eeafdad299fdc8d9a6d843eec20a00767f229061209590879087906156a0565b60405180910390a250505050565b6120ab61480c565b61190c60006148b8565b601081815481106120c557600080fd5b600091825260209091200154905081565b60025461010090046001600160a01b031633146121055760405162461bcd60e51b815260040161070e9061548d565b61190c614908565b6002546000908190819061010090046001600160a01b031633146121435760405162461bcd60e51b815260040161070e9061548d565b5050600f549050600080805b600f5481101561248b57600060076000600f848154811061217257612172615448565b60009182526020808320909101546001600160a01b031683528201929092526040908101909120815161012081019092528054829082906121b29061552e565b80601f01602080910402602001604051908101604052809291908181526020018280546121de9061552e565b801561222b5780601f106122005761010080835404028352916020019161222b565b820191906000526020600020905b81548152906001019060200180831161220e57829003601f168201915b505050918352505060018201546001600160a01b0316602082015260028201805460409092019161225b9061552e565b80601f01602080910402602001604051908101604052809291908181526020018280546122879061552e565b80156122d45780601f106122a9576101008083540402835291602001916122d4565b820191906000526020600020905b8154815290600101906020018083116122b757829003601f168201915b505050505081526020016003820180546122ed9061552e565b80601f01602080910402602001604051908101604052809291908181526020018280546123199061552e565b80156123665780601f1061233b57610100808354040283529160200191612366565b820191906000526020600020905b81548152906001019060200180831161234957829003601f168201915b5050505050815260200160048201805461237f9061552e565b80601f01602080910402602001604051908101604052809291908181526020018280546123ab9061552e565b80156123f85780601f106123cd576101008083540402835291602001916123f8565b820191906000526020600020905b8154815290600101906020018083116123db57829003601f168201915b5050509183525050600582015460ff8082161515602084015261010090910416151560408201526006820154606082015260079091015460809091015260a081015190915015612478578361244c81615474565b9450508060c00151801561246557506003548160e00151145b15612478578261247481615474565b9350505b508061248381615474565b91505061214f565b50909192565b60025461010090046001600160a01b031633146124c05760405162461bcd60e51b815260040161070e9061548d565b8060045481111580156124e0575060008181526009602052604090205415155b6125275760405162461bcd60e51b815260206004820152601860248201527710d85b991a59185d1948191bd95cc81b9bdd08195e1a5cdd60421b604482015260640161070e565b506000908152600960205260409020600501805460ff19169055565b60025461010090046001600160a01b031633146125725760405162461bcd60e51b815260040161070e9061548d565b836004548111158015612592575060008181526009602052604090205415155b6125d95760405162461bcd60e51b815260206004820152601860248201527710d85b991a59185d1948191bd95cc81b9bdd08195e1a5cdd60421b604482015260640161070e565b600084511161262a5760405162461bcd60e51b815260206004820152601e60248201527f43616e646964617465206e616d652063616e6e6f7420626520656d7074790000604482015260640161070e565b600083511161267b5760405162461bcd60e51b815260206004820152601a60248201527f5061727479206e616d652063616e6e6f7420626520656d707479000000000000604482015260640161070e565b60008581526009602052604090206001810161269786826155b1565b50600281016126a685826155b1565b50600381016126b584826155b1565b50857f06fa1f6ca7bd4f43da277fe44f5ca5ed03127901cfd6d79a4eafff6cd5ceb80986866040516126e89291906156a0565b60405180910390a2505050505050565b60025461010090046001600160a01b031633146127275760405162461bcd60e51b815260040161070e9061548d565b80600554811115801561274757506000818152600a602052604090205415155b6127635760405162461bcd60e51b815260040161070e906154de565b6000828152600a60205260409020600581015460ff166127be5760405162461bcd60e51b8152602060048201526016602482015275456c656374696f6e206973206e6f742061637469766560501b604482015260640161070e565b60058101805460ff191690554260048201556003548390036127e05760006003555b60005b60105481101561289957836010828154811061280157612801615448565b9060005260206000200154036128875760108054612821906001906156c5565b8154811061283157612831615448565b90600052602060002001546010828154811061284f5761284f615448565b600091825260209091200155601080548061286c5761286c6156d8565b60019003818190600052602060002001600090559055612899565b8061289181615474565b9150506127e3565b5060405183907f562cd572b2ba3b666cd989fc4ca98419ec81e75f04528df9d9d76fdb7807ee7190600090a2505050565b6128d2614a21565b600a6000838152602001908152602001600020604051806101000160405290816000820154815260200160018201805461290b9061552e565b80601f01602080910402602001604051908101604052809291908181526020018280546129379061552e565b80156129845780601f1061295957610100808354040283529160200191612984565b820191906000526020600020905b81548152906001019060200180831161296757829003601f168201915b5050505050815260200160028201805461299d9061552e565b80601f01602080910402602001604051908101604052809291908181526020018280546129c99061552e565b8015612a165780601f106129eb57610100808354040283529160200191612a16565b820191906000526020600020905b8154815290600101906020018083116129f957829003601f168201915b5050505050815260200160038201548152602001600482015481526020016005820160009054906101000a900460ff161515151581526020016006820154815260200160078201805480602002602001604051908101604052809291908181526020018280548015612aa757602002820191906000526020600020905b815481526020019060010190808311612a93575b5050505050815250509050919050565b60025460609061010090046001600160a01b03163314612ae95760405162461bcd60e51b815260040161070e9061548d565b600060015b6006548111612b31576000818152600b602052604090206006015460ff1615612b1f5781612b1b81615474565b9250505b80612b2981615474565b915050612aee565b5060008167ffffffffffffffff811115612b4d57612b4d614ae8565b604051908082528060200260200182016040528015612b8657816020015b612b736149d9565b815260200190600190039081612b6b5790505b509050600060015b6006548111612e7f576000818152600b602052604090206006015460ff1615612e6d576000818152600b6020908152604091829020825160e0810190935280546001600160a01b031683526001810180549192840191612bed9061552e565b80601f0160208091040260200160405190810160405280929190818152602001828054612c199061552e565b8015612c665780601f10612c3b57610100808354040283529160200191612c66565b820191906000526020600020905b815481529060010190602001808311612c4957829003601f168201915b50505050508152602001600282018054612c7f9061552e565b80601f0160208091040260200160405190810160405280929190818152602001828054612cab9061552e565b8015612cf85780601f10612ccd57610100808354040283529160200191612cf8565b820191906000526020600020905b815481529060010190602001808311612cdb57829003601f168201915b50505050508152602001600382018054612d119061552e565b80601f0160208091040260200160405190810160405280929190818152602001828054612d3d9061552e565b8015612d8a5780601f10612d5f57610100808354040283529160200191612d8a565b820191906000526020600020905b815481529060010190602001808311612d6d57829003601f168201915b50505050508152602001600482018054612da39061552e565b80601f0160208091040260200160405190810160405280929190818152602001828054612dcf9061552e565b8015612e1c5780601f10612df157610100808354040283529160200191612e1c565b820191906000526020600020905b815481529060010190602001808311612dff57829003601f168201915b50505091835250506005820154602082015260069091015460ff1615156040909101528351849084908110612e5357612e53615448565b60200260200101819052508180612e6990615474565b9250505b80612e7781615474565b915050612b8e565b50909250505090565b60025461010090046001600160a01b03163314612eb75760405162461bcd60e51b815260040161070e9061548d565b600654811115612efe5760405162461bcd60e51b8152602060048201526012602482015271125b9d985b1a59081c995c5d595cdd08125160721b604482015260640161070e565b6000818152600b60205260409020600681015460ff16612f5c5760405162461bcd60e51b815260206004820152601960248201527814995c5d595cdd08185b1c9958591e481c1c9bd8d95cdcd959603a1b604482015260640161070e565b80546040516001600160a01b0390911690600d90612f7e9060018501906156ee565b9081526040519081900360200190205460ff16612fd25760405162461bcd60e51b8152602060048201526012602482015271159bdd195c881251081b9bdd081d985b1a5960721b604482015260640161070e565b600e82600101604051612fe591906156ee565b9081526040519081900360200190205460ff161561303d5760405162461bcd60e51b8152602060048201526015602482015274159bdd195c88125108185b1c9958591e481d5cd959605a1b604482015260640161070e565b60006001600160a01b031660088360010160405161305b91906156ee565b908152604051908190036020019020546001600160a01b0316146130c15760405162461bcd60e51b815260206004820152601b60248201527f566f74657220494420616c726561647920726567697374657265640000000000604482015260640161070e565b6040518061012001604052808360010180546130dc9061552e565b80601f01602080910402602001604051908101604052809291908181526020018280546131089061552e565b80156131555780601f1061312a57610100808354040283529160200191613155565b820191906000526020600020905b81548152906001019060200180831161313857829003601f168201915b50505050508152602001826001600160a01b0316815260200183600201805461317d9061552e565b80601f01602080910402602001604051908101604052809291908181526020018280546131a99061552e565b80156131f65780601f106131cb576101008083540402835291602001916131f6565b820191906000526020600020905b8154815290600101906020018083116131d957829003601f168201915b5050505050815260200183600301805461320f9061552e565b80601f016020809104026020016040519081016040528092919081815260200182805461323b9061552e565b80156132885780601f1061325d57610100808354040283529160200191613288565b820191906000526020600020905b81548152906001019060200180831161326b57829003601f168201915b505050505081526020018360040180546132a19061552e565b80601f01602080910402602001604051908101604052809291908181526020018280546132cd9061552e565b801561331a5780601f106132ef5761010080835404028352916020019161331a565b820191906000526020600020905b8154815290600101906020018083116132fd57829003601f168201915b505050918352505060016020808301919091526000604080840182905260608401829052426080909401939093526001600160a01b03851681526007909152208151819061336890826155b1565b5060208201516001820180546001600160a01b0319166001600160a01b03909216919091179055604082015160028201906133a390826155b1565b50606082015160038201906133b890826155b1565b50608082015160048201906133cd90826155b1565b5060a082015160058201805460c085015161ffff1990911692151561ff00191692909217610100921515830217905560e083015160068301559091015160079091015560405181906008906134269060018601906156ee565b908152602001604051809103902060006101000a8154816001600160a01b0302191690836001600160a01b031602179055506001600e8360010160405161346d91906156ee565b908152604080519182900360209081018320805494151560ff19958616179055600f805460018181019092557f8d1108e10bcb7c27dddfc02ed9d693a074039d026cf4ea4240b40f7d581ac8020180546001600160a01b0388166001600160a01b03199091168117909155600688018054871690556000818152600c909352929091208054909416909355917f02d58685ec3349d0400ea2990a81e813f67c21d1a878ba6c09ca0893df4f6cbb9161352791860190615764565b60405180910390a2505050565b60076020526000908152604090208054819061354f9061552e565b80601f016020809104026020016040519081016040528092919081815260200182805461357b9061552e565b80156135c85780601f1061359d576101008083540402835291602001916135c8565b820191906000526020600020905b8154815290600101906020018083116135ab57829003601f168201915b505050600184015460028501805494956001600160a01b039092169491935091506135f29061552e565b80601f016020809104026020016040519081016040528092919081815260200182805461361e9061552e565b801561366b5780601f106136405761010080835404028352916020019161366b565b820191906000526020600020905b81548152906001019060200180831161364e57829003601f168201915b5050505050908060030180546136809061552e565b80601f01602080910402602001604051908101604052809291908181526020018280546136ac9061552e565b80156136f95780601f106136ce576101008083540402835291602001916136f9565b820191906000526020600020905b8154815290600101906020018083116136dc57829003601f168201915b50505050509080600401805461370e9061552e565b80601f016020809104026020016040519081016040528092919081815260200182805461373a9061552e565b80156137875780601f1061375c57610100808354040283529160200191613787565b820191906000526020600020905b81548152906001019060200180831161376a57829003601f168201915b50505060058401546006850154600790950154939460ff80831695610100909304169350915089565b60025460009061010090046001600160a01b031633146137e25760405162461bcd60e51b815260040161070e9061548d565b60008451116138335760405162461bcd60e51b815260206004820152601e60248201527f43616e646964617465206e616d652063616e6e6f7420626520656d7074790000604482015260640161070e565b60008351116138845760405162461bcd60e51b815260206004820152601a60248201527f5061727479206e616d652063616e6e6f7420626520656d707479000000000000604482015260640161070e565b6004805490600061389483615474565b90915550506040805160c081018252600454808252602080830188815283850188905260608401879052600060808501819052600160a086018190529381526009909252939020825181559251919291908201906138f290826155b1565b506040820151600282019061390790826155b1565b506060820151600382019061391c90826155b1565b50608082015160048281019190915560a0909201516005909101805460ff1916911515919091179055546040517fe64f834082661dd9ed89427b87edb6270fd6dad17198b0938f0edd058914c87f9061397890879087906156a0565b60405180910390a2506004549392505050565b613993614a21565b600354600003613a435760405180610100016040528060008152602001604051806020016040528060008152508152602001604051806020016040528060008152508152602001600081526020016000815260200160001515815260200160008152602001600067ffffffffffffffff811115613a1257613a12614ae8565b604051908082528060200260200182016040528015613a3b578160200160208202803683370190505b509052919050565b600a600060035481526020019081526020016000206040518061010001604052908160008201548152602001600182018054613a7e9061552e565b80601f0160208091040260200160405190810160405280929190818152602001828054613aaa9061552e565b8015613af75780601f10613acc57610100808354040283529160200191613af7565b820191906000526020600020905b815481529060010190602001808311613ada57829003601f168201915b50505050508152602001600282018054613b109061552e565b80601f0160208091040260200160405190810160405280929190818152602001828054613b3c9061552e565b8015613b895780601f10613b5e57610100808354040283529160200191613b89565b820191906000526020600020905b815481529060010190602001808311613b6c57829003601f168201915b5050505050815260200160038201548152602001600482015481526020016005820160009054906101000a900460ff161515151581526020016006820154815260200160078201805480602002602001604051908101604052809291908181526020018280548015613c1a57602002820191906000526020600020905b815481526020019060010190808311613c06575b505050505081525050905090565b613c846040518061012001604052806060815260200160006001600160a01b0316815260200160608152602001606081526020016060815260200160001515815260200160001515815260200160008152602001600081525090565b6001600160a01b0382166000908152600760205260409081902081516101208101909252805482908290613cb79061552e565b80601f0160208091040260200160405190810160405280929190818152602001828054613ce39061552e565b8015613d305780601f10613d0557610100808354040283529160200191613d30565b820191906000526020600020905b815481529060010190602001808311613d1357829003601f168201915b505050918352505060018201546001600160a01b03166020820152600282018054604090920191613d609061552e565b80601f0160208091040260200160405190810160405280929190818152602001828054613d8c9061552e565b8015613dd95780601f10613dae57610100808354040283529160200191613dd9565b820191906000526020600020905b815481529060010190602001808311613dbc57829003601f168201915b50505050508152602001600382018054613df29061552e565b80601f0160208091040260200160405190810160405280929190818152602001828054613e1e9061552e565b8015613e6b5780601f10613e4057610100808354040283529160200191613e6b565b820191906000526020600020905b815481529060010190602001808311613e4e57829003601f168201915b50505050508152602001600482018054613e849061552e565b80601f0160208091040260200160405190810160405280929190818152602001828054613eb09061552e565b8015613efd5780601f10613ed257610100808354040283529160200191613efd565b820191906000526020600020905b815481529060010190602001808311613ee057829003601f168201915b5050509183525050600582015460ff8082161515602084015261010090910416151560408201526006820154606082015260079091015460809091015292915050565b600f8181548110613f5057600080fd5b6000918252602090912001546001600160a01b0316905081565b6060816005548111158015613f8c57506000818152600a602052604090205415155b613fa85760405162461bcd60e51b815260040161070e906154de565b6000600a60008581526020019081526020016000206040518061010001604052908160008201548152602001600182018054613fe39061552e565b80601f016020809104026020016040519081016040528092919081815260200182805461400f9061552e565b801561405c5780601f106140315761010080835404028352916020019161405c565b820191906000526020600020905b81548152906001019060200180831161403f57829003601f168201915b505050505081526020016002820180546140759061552e565b80601f01602080910402602001604051908101604052809291908181526020018280546140a19061552e565b80156140ee5780601f106140c3576101008083540402835291602001916140ee565b820191906000526020600020905b8154815290600101906020018083116140d157829003601f168201915b5050505050815260200160038201548152602001600482015481526020016005820160009054906101000a900460ff16151515158152602001600682015481526020016007820180548060200260200160405190810160405280929190818152602001828054801561417f57602002820191906000526020600020905b81548152602001906001019080831161416b575b505050505081525050905060008160e001515167ffffffffffffffff8111156141aa576141aa614ae8565b60405190808252806020026020018201604052801561421657816020015b6142036040518060c0016040528060008152602001606081526020016060815260200160608152602001600081526020016000151581525090565b8152602001906001900390816141c85790505b50905060005b8260e001515181101561447057600960008460e00151838151811061424357614243615448565b602002602001015181526020019081526020016000206040518060c00160405290816000820154815260200160018201805461427e9061552e565b80601f01602080910402602001604051908101604052809291908181526020018280546142aa9061552e565b80156142f75780601f106142cc576101008083540402835291602001916142f7565b820191906000526020600020905b8154815290600101906020018083116142da57829003601f168201915b505050505081526020016002820180546143109061552e565b80601f016020809104026020016040519081016040528092919081815260200182805461433c9061552e565b80156143895780601f1061435e57610100808354040283529160200191614389565b820191906000526020600020905b81548152906001019060200180831161436c57829003601f168201915b505050505081526020016003820180546143a29061552e565b80601f01602080910402602001604051908101604052809291908181526020018280546143ce9061552e565b801561441b5780601f106143f05761010080835404028352916020019161441b565b820191906000526020600020905b8154815290600101906020018083116143fe57829003601f168201915b50505091835250506004820154602082015260059091015460ff161515604090910152825183908390811061445257614452615448565b6020026020010181905250808061446890615474565b91505061421c565b509250505b50919050565b60025461010090046001600160a01b031633146144aa5760405162461bcd60e51b815260040161070e9061548d565b6006548111156144f15760405162461bcd60e51b8152602060048201526012602482015271125b9d985b1a59081c995c5d595cdd08125160721b604482015260640161070e565b6000818152600b60205260409020600681015460ff1661454f5760405162461bcd60e51b815260206004820152601960248201527814995c5d595cdd08185b1c9958591e481c1c9bd8d95cdcd959603a1b604482015260640161070e565b80546001600160a01b03166000908152600c60205260409020805460ff1990811690915560069091018054909116905550565b60008060606000600d856040516145999190615684565b9081526040519081900360200190205460ff169050806145db5760008060405180606001604052806033815260200161581960339139935093509350506146f0565b6000600e866040516145ed9190615684565b9081526040519081900360200190205460ff169050801561464f57600160006040518060400160405280601b81526020017f566f74657220494420616c72656164792072656769737465726564000000000081525094509450945050506146f0565b60006008876040516146619190615684565b908152604051908190036020019020546001600160a01b0316905080156146ad57600160006040518060600160405280602981526020016157f0602991399550955095505050506146f0565b6001806040518060400160405280601f81526020017f566f7465722049442069732076616c696420616e6420617661696c61626c65008152509550955095505050505b9193909250565b6146ff61480c565b6001600160a01b0381166147645760405162461bcd60e51b815260206004820152602660248201527f4f776e61626c653a206e6577206f776e657220697320746865207a65726f206160448201526564647265737360d01b606482015260840161070e565b610a3c816148b8565b6002600154036147bf5760405162461bcd60e51b815260206004820152601f60248201527f5265656e7472616e637947756172643a207265656e7472616e742063616c6c00604482015260640161070e565b6002600155565b60025460ff161561190c5760405162461bcd60e51b815260206004820152601060248201526f14185d5cd8589b194e881c185d5cd95960821b604482015260640161070e565b6000546001600160a01b0316331461190c5760405162461bcd60e51b815260206004820181905260248201527f4f776e61626c653a2063616c6c6572206973206e6f7420746865206f776e6572604482015260640161070e565b61486e614945565b6002805460ff191690557f5db9ee0a495bf2e6ff9c91a7834c1ba4fdd244a5e8aa4e537bd38aeae4b073aa335b6040516001600160a01b03909116815260200160405180910390a1565b600080546001600160a01b038381166001600160a01b0319831681178455604051919092169283917f8be0079c531659141344cd1fd0a4f28419497f9722a3daafe3b4186f6b6457e09190a35050565b6149106147c6565b6002805460ff191660011790557f62e78cea01bee320cd4e420270b5ea74000d11b0c9f74754ebdbfc544b05a25861489b3390565b60025460ff1661190c5760405162461bcd60e51b815260206004820152601460248201527314185d5cd8589b194e881b9bdd081c185d5cd95960621b604482015260640161070e565b8280548282559060005260206000209081019282156149c9579160200282015b828111156149c95782518255916020019190600101906149ae565b506149d5929150614a68565b5090565b6040518060e0016040528060006001600160a01b0316815260200160608152602001606081526020016060815260200160608152602001600081526020016000151581525090565b604051806101000160405280600081526020016060815260200160608152602001600081526020016000815260200160001515815260200160008152602001606081525090565b5b808211156149d55760008155600101614a69565b600060208284031215614a8f57600080fd5b5035919050565b600060208284031215614aa857600080fd5b81356001600160a01b0381168114614abf57600080fd5b9392505050565b60008060408385031215614ad957600080fd5b50508035926020909101359150565b634e487b7160e01b600052604160045260246000fd5b604051601f8201601f1916810167ffffffffffffffff81118282101715614b2757614b27614ae8565b604052919050565b600082601f830112614b4057600080fd5b813567ffffffffffffffff811115614b5a57614b5a614ae8565b614b6d601f8201601f1916602001614afe565b818152846020838601011115614b8257600080fd5b816020850160208301376000918101602001919091529392505050565b600080600060608486031215614bb457600080fd5b833567ffffffffffffffff80821115614bcc57600080fd5b614bd887838801614b2f565b9450602091508186013581811115614bef57600080fd5b614bfb88828901614b2f565b945050604086013581811115614c1057600080fd5b8601601f81018813614c2157600080fd5b803582811115614c3357614c33614ae8565b8060051b9250614c44848401614afe565b818152928201840192848101908a851115614c5e57600080fd5b928501925b84841015614c7c57833582529285019290850190614c63565b8096505050505050509250925092565b600060208284031215614c9e57600080fd5b813567ffffffffffffffff811115614cb557600080fd5b614cc184828501614b2f565b949350505050565b60005b83811015614ce4578181015183820152602001614ccc565b50506000910152565b60008151808452614d05816020860160208601614cc9565b601f01601f19169290920160200192915050565b86815260c060208201526000614d3260c0830188614ced565b8281036040840152614d448188614ced565b90508281036060840152614d588187614ced565b6080840195909552505090151560a090910152949350505050565b60018060a01b0381511682526000602082015160e06020850152614d9a60e0850182614ced565b905060408301518482036040860152614db38282614ced565b91505060608301518482036060860152614dcd8282614ced565b91505060808301518482036080860152614de78282614ced565b91505060a083015160a085015260c0830151151560c08501528091505092915050565b602081526000614abf6020830184614d73565b805182526000602082015160c06020850152614e3c60c0850182614ced565b905060408301518482036040860152614e558282614ced565b91505060608301518482036060860152614e6f8282614ced565b9150506080830151608085015260a0830151151560a08501528091505092915050565b602081526000614abf6020830184614e1d565b6020808252825182820181905260009190848201906040850190845b81811015614ee65783516001600160a01b031683529284019291840191600101614ec1565b50909695505050505050565b87815260e060208201526000614f0b60e0830189614ced565b8281036040840152614f1d8189614ced565b60608401979097525050608081019390935290151560a083015260c0909101529392505050565b6001600160a01b038816815260e060208201819052600090614f6890830189614ced565b8281036040840152614f7a8189614ced565b90508281036060840152614f8e8188614ced565b90508281036080840152614fa28187614ced565b60a0840195909552505090151560c09091015295945050505050565b60008060008060808587031215614fd457600080fd5b843567ffffffffffffffff80821115614fec57600080fd5b614ff888838901614b2f565b9550602087013591508082111561500e57600080fd5b61501a88838901614b2f565b9450604087013591508082111561503057600080fd5b61503c88838901614b2f565b9350606087013591508082111561505257600080fd5b5061505f87828801614b2f565b91505092959194509250565b6000806000806080858703121561508157600080fd5b84359350602085013567ffffffffffffffff8082111561500e57600080fd5b600081518084526020808501945080840160005b838110156150d0578151875295820195908201906001016150b4565b509495945050505050565b602081528151602082015260006020830151610100806040850152615104610120850183614ced565b91506040850151601f19808685030160608701526151228483614ced565b935060608701516080870152608087015160a087015260a0870151915061514d60c087018315159052565b60c087015160e087015260e087015191508086850301838701525061517283826150a0565b9695505050505050565b6000602080830181845280855180835260408601915060408160051b870101925083870160005b828110156151d157603f198886030184526151bf858351614d73565b945092850192908501906001016151a3565b5092979650505050505050565b60006101208083526151f28184018d614ced565b6001600160a01b038c16602085015283810360408501529050615215818b614ced565b90508281036060840152615229818a614ced565b9050828103608084015261523d8189614ced565b96151560a0840152505092151560c084015260e08301919091526101009091015295945050505050565b60008060006060848603121561527c57600080fd5b833567ffffffffffffffff8082111561529457600080fd5b6152a087838801614b2f565b945060208601359150808211156152b657600080fd5b6152c287838801614b2f565b935060408601359150808211156152d857600080fd5b506152e586828701614b2f565b9150509250925092565b602081526000825161012080602085015261530e610140850183614ced565b9150602085015161532a60408601826001600160a01b03169052565b506040850151601f19808685030160608701526153478483614ced565b935060608701519150808685030160808701526153648483614ced565b935060808701519150808685030160a0870152506153828382614ced565b92505060a085015161539860c086018215159052565b5060c085015180151560e08601525060e085015161010085810191909152909401519390920192909252919050565b6000602080830181845280855180835260408601915060408160051b870101925083870160005b828110156151d157603f1988860301845261540a858351614e1d565b945092850192908501906001016153ee565b8315158152821515602082015260606040820152600061543f6060830184614ced565b95945050505050565b634e487b7160e01b600052603260045260246000fd5b634e487b7160e01b600052601160045260246000fd5b6000600182016154865761548661545e565b5060010190565b60208082526031908201527f4f6e6c7920456c6563746f72616c20436f6d6d697373696f6e2063616e207065604082015270393337b936903a3434b99030b1ba34b7b760791b606082015260800190565b60208082526017908201527f456c656374696f6e20646f6573206e6f74206578697374000000000000000000604082015260600190565b808201808211156155285761552861545e565b92915050565b600181811c9082168061554257607f821691505b60208210810361447557634e487b7160e01b600052602260045260246000fd5b601f8211156155ac57600081815260208120601f850160051c810160208610156155895750805b601f850160051c820191505b818110156155a857828155600101615595565b5050505b505050565b815167ffffffffffffffff8111156155cb576155cb614ae8565b6155df816155d9845461552e565b84615562565b602080601f83116001811461561457600084156155fc5750858301515b600019600386901b1c1916600185901b1785556155a8565b600085815260208120601f198616915b8281101561564357888601518255948401946001909101908401615624565b50858210156156615787850151600019600388901b60f8161c191681555b5050505050600190811b01905550565b602081526000614abf6020830184614ced565b60008251615696818460208701614cc9565b9190910192915050565b6040815260006156b36040830185614ced565b828103602084015261543f8185614ced565b818103818111156155285761552861545e565b634e487b7160e01b600052603160045260246000fd5b60008083546156fc8161552e565b60018281168015615714576001811461572957615758565b60ff1984168752821515830287019450615758565b8760005260208060002060005b8581101561574f5781548a820152908401908201615736565b50505082870194505b50929695505050505050565b60006020808352600084546157788161552e565b8084870152604060018084166000811461579957600181146157b3576157e1565b60ff1985168984015283151560051b8901830195506157e1565b896000528660002060005b858110156157d95781548b82018601529083019088016157be565b8a0184019650505b50939897505050505050505056fe566f74657220494420616c7265616479206c696e6b656420746f20616e6f746865722077616c6c6574566f746572204944206e6f7420666f756e6420696e20456c6563746f72616c20436f6d6d697373696f6e206461746162617365a2646970667358221220851c7c6c6c177d0564d4b4b41b307189dd649bc54d96ef8bfb82f145be32018b64736f6c63430008130033",
  "linkReferences": {},
  "deployedLinkReferences": {}
}